{
  "_format": "hh-sol-artifact-1",
  "contractName": "BookNFT",
  "sourceName": "contracts/BookNFT.sol",
  "abi": [
    {
      "inputs": [],
      "stateMutability": "nonpayable",
      "type": "constructor"
    },
    {
      "inputs": [
        {
          "internalType": "address",
          "name": "sender",
          "type": "address"
        },
        {
          "internalType": "uint256",
          "name": "tokenId",
          "type": "uint256"
        },
        {
          "internalType": "address",
          "name": "owner",
          "type": "address"
        }
      ],
      "name": "ERC721IncorrectOwner",
      "type": "error"
    },
    {
      "inputs": [
        {
          "internalType": "address",
          "name": "operator",
          "type": "address"
        },
        {
          "internalType": "uint256",
          "name": "tokenId",
          "type": "uint256"
        }
      ],
      "name": "ERC721InsufficientApproval",
      "type": "error"
    },
    {
      "inputs": [
        {
          "internalType": "address",
          "name": "approver",
          "type": "address"
        }
      ],
      "name": "ERC721InvalidApprover",
      "type": "error"
    },
    {
      "inputs": [
        {
          "internalType": "address",
          "name": "operator",
          "type": "address"
        }
      ],
      "name": "ERC721InvalidOperator",
      "type": "error"
    },
    {
      "inputs": [
        {
          "internalType": "address",
          "name": "owner",
          "type": "address"
        }
      ],
      "name": "ERC721InvalidOwner",
      "type": "error"
    },
    {
      "inputs": [
        {
          "internalType": "address",
          "name": "receiver",
          "type": "address"
        }
      ],
      "name": "ERC721InvalidReceiver",
      "type": "error"
    },
    {
      "inputs": [
        {
          "internalType": "address",
          "name": "sender",
          "type": "address"
        }
      ],
      "name": "ERC721InvalidSender",
      "type": "error"
    },
    {
      "inputs": [
        {
          "internalType": "uint256",
          "name": "tokenId",
          "type": "uint256"
        }
      ],
      "name": "ERC721NonexistentToken",
      "type": "error"
    },
    {
      "inputs": [
        {
          "internalType": "address",
          "name": "owner",
          "type": "address"
        }
      ],
      "name": "OwnableInvalidOwner",
      "type": "error"
    },
    {
      "inputs": [
        {
          "internalType": "address",
          "name": "account",
          "type": "address"
        }
      ],
      "name": "OwnableUnauthorizedAccount",
      "type": "error"
    },
    {
      "anonymous": false,
      "inputs": [
        {
          "indexed": true,
          "internalType": "address",
          "name": "owner",
          "type": "address"
        },
        {
          "indexed": true,
          "internalType": "address",
          "name": "approved",
          "type": "address"
        },
        {
          "indexed": true,
          "internalType": "uint256",
          "name": "tokenId",
          "type": "uint256"
        }
      ],
      "name": "Approval",
      "type": "event"
    },
    {
      "anonymous": false,
      "inputs": [
        {
          "indexed": true,
          "internalType": "address",
          "name": "owner",
          "type": "address"
        },
        {
          "indexed": true,
          "internalType": "address",
          "name": "operator",
          "type": "address"
        },
        {
          "indexed": false,
          "internalType": "bool",
          "name": "approved",
          "type": "bool"
        }
      ],
      "name": "ApprovalForAll",
      "type": "event"
    },
    {
      "anonymous": false,
      "inputs": [
        {
          "indexed": false,
          "internalType": "uint256",
          "name": "_fromTokenId",
          "type": "uint256"
        },
        {
          "indexed": false,
          "internalType": "uint256",
          "name": "_toTokenId",
          "type": "uint256"
        }
      ],
      "name": "BatchMetadataUpdate",
      "type": "event"
    },
    {
      "anonymous": false,
      "inputs": [
        {
          "indexed": true,
          "internalType": "address",
          "name": "to",
          "type": "address"
        },
        {
          "indexed": false,
          "internalType": "uint256",
          "name": "tokenId",
          "type": "uint256"
        },
        {
          "indexed": false,
          "internalType": "string",
          "name": "title",
          "type": "string"
        },
        {
          "indexed": false,
          "internalType": "string",
          "name": "author",
          "type": "string"
        }
      ],
      "name": "BookMinted",
      "type": "event"
    },
    {
      "anonymous": false,
      "inputs": [
        {
          "indexed": false,
          "internalType": "uint256",
          "name": "_tokenId",
          "type": "uint256"
        }
      ],
      "name": "MetadataUpdate",
      "type": "event"
    },
    {
      "anonymous": false,
      "inputs": [
        {
          "indexed": true,
          "internalType": "address",
          "name": "previousOwner",
          "type": "address"
        },
        {
          "indexed": true,
          "internalType": "address",
          "name": "newOwner",
          "type": "address"
        }
      ],
      "name": "OwnershipTransferred",
      "type": "event"
    },
    {
      "anonymous": false,
      "inputs": [
        {
          "indexed": true,
          "internalType": "address",
          "name": "from",
          "type": "address"
        },
        {
          "indexed": true,
          "internalType": "address",
          "name": "to",
          "type": "address"
        },
        {
          "indexed": true,
          "internalType": "uint256",
          "name": "tokenId",
          "type": "uint256"
        }
      ],
      "name": "Transfer",
      "type": "event"
    },
    {
      "inputs": [
        {
          "internalType": "address",
          "name": "to",
          "type": "address"
        },
        {
          "internalType": "uint256",
          "name": "tokenId",
          "type": "uint256"
        }
      ],
      "name": "approve",
      "outputs": [],
      "stateMutability": "nonpayable",
      "type": "function"
    },
    {
      "inputs": [
        {
          "internalType": "address",
          "name": "owner",
          "type": "address"
        }
      ],
      "name": "balanceOf",
      "outputs": [
        {
          "internalType": "uint256",
          "name": "",
          "type": "uint256"
        }
      ],
      "stateMutability": "view",
      "type": "function"
    },
    {
      "inputs": [
        {
          "internalType": "uint256",
          "name": "",
          "type": "uint256"
        }
      ],
      "name": "bookDetails",
      "outputs": [
        {
          "internalType": "string",
          "name": "title",
          "type": "string"
        },
        {
          "internalType": "string",
          "name": "author",
          "type": "string"
        },
        {
          "internalType": "string",
          "name": "coverImageURI",
          "type": "string"
        }
      ],
      "stateMutability": "view",
      "type": "function"
    },
    {
      "inputs": [
        {
          "internalType": "uint256",
          "name": "tokenId",
          "type": "uint256"
        }
      ],
      "name": "getApproved",
      "outputs": [
        {
          "internalType": "address",
          "name": "",
          "type": "address"
        }
      ],
      "stateMutability": "view",
      "type": "function"
    },
    {
      "inputs": [
        {
          "internalType": "uint256",
          "name": "tokenId",
          "type": "uint256"
        }
      ],
      "name": "getBook",
      "outputs": [
        {
          "components": [
            {
              "internalType": "string",
              "name": "title",
              "type": "string"
            },
            {
              "internalType": "string",
              "name": "author",
              "type": "string"
            },
            {
              "internalType": "string",
              "name": "coverImageURI",
              "type": "string"
            }
          ],
          "internalType": "struct BookNFT.BookMetadata",
          "name": "",
          "type": "tuple"
        }
      ],
      "stateMutability": "view",
      "type": "function"
    },
    {
      "inputs": [
        {
          "internalType": "address",
          "name": "owner",
          "type": "address"
        },
        {
          "internalType": "address",
          "name": "operator",
          "type": "address"
        }
      ],
      "name": "isApprovedForAll",
      "outputs": [
        {
          "internalType": "bool",
          "name": "",
          "type": "bool"
        }
      ],
      "stateMutability": "view",
      "type": "function"
    },
    {
      "inputs": [
        {
          "internalType": "address",
          "name": "to",
          "type": "address"
        },
        {
          "internalType": "string",
          "name": "title",
          "type": "string"
        },
        {
          "internalType": "string",
          "name": "author",
          "type": "string"
        },
        {
          "internalType": "string",
          "name": "coverImageURI",
          "type": "string"
        },
        {
          "internalType": "string",
          "name": "tokenURI",
          "type": "string"
        }
      ],
      "name": "mintBookNFT",
      "outputs": [
        {
          "internalType": "uint256",
          "name": "",
          "type": "uint256"
        }
      ],
      "stateMutability": "nonpayable",
      "type": "function"
    },
    {
      "inputs": [],
      "name": "name",
      "outputs": [
        {
          "internalType": "string",
          "name": "",
          "type": "string"
        }
      ],
      "stateMutability": "view",
      "type": "function"
    },
    {
      "inputs": [],
      "name": "owner",
      "outputs": [
        {
          "internalType": "address",
          "name": "",
          "type": "address"
        }
      ],
      "stateMutability": "view",
      "type": "function"
    },
    {
      "inputs": [
        {
          "internalType": "uint256",
          "name": "tokenId",
          "type": "uint256"
        }
      ],
      "name": "ownerOf",
      "outputs": [
        {
          "internalType": "address",
          "name": "",
          "type": "address"
        }
      ],
      "stateMutability": "view",
      "type": "function"
    },
    {
      "inputs": [],
      "name": "renounceOwnership",
      "outputs": [],
      "stateMutability": "nonpayable",
      "type": "function"
    },
    {
      "inputs": [
        {
          "internalType": "address",
          "name": "from",
          "type": "address"
        },
        {
          "internalType": "address",
          "name": "to",
          "type": "address"
        },
        {
          "internalType": "uint256",
          "name": "tokenId",
          "type": "uint256"
        }
      ],
      "name": "safeTransferFrom",
      "outputs": [],
      "stateMutability": "nonpayable",
      "type": "function"
    },
    {
      "inputs": [
        {
          "internalType": "address",
          "name": "from",
          "type": "address"
        },
        {
          "internalType": "address",
          "name": "to",
          "type": "address"
        },
        {
          "internalType": "uint256",
          "name": "tokenId",
          "type": "uint256"
        },
        {
          "internalType": "bytes",
          "name": "data",
          "type": "bytes"
        }
      ],
      "name": "safeTransferFrom",
      "outputs": [],
      "stateMutability": "nonpayable",
      "type": "function"
    },
    {
      "inputs": [
        {
          "internalType": "address",
          "name": "operator",
          "type": "address"
        },
        {
          "internalType": "bool",
          "name": "approved",
          "type": "bool"
        }
      ],
      "name": "setApprovalForAll",
      "outputs": [],
      "stateMutability": "nonpayable",
      "type": "function"
    },
    {
      "inputs": [
        {
          "internalType": "bytes4",
          "name": "interfaceId",
          "type": "bytes4"
        }
      ],
      "name": "supportsInterface",
      "outputs": [
        {
          "internalType": "bool",
          "name": "",
          "type": "bool"
        }
      ],
      "stateMutability": "view",
      "type": "function"
    },
    {
      "inputs": [],
      "name": "symbol",
      "outputs": [
        {
          "internalType": "string",
          "name": "",
          "type": "string"
        }
      ],
      "stateMutability": "view",
      "type": "function"
    },
    {
      "inputs": [
        {
          "internalType": "uint256",
          "name": "tokenId",
          "type": "uint256"
        }
      ],
      "name": "tokenURI",
      "outputs": [
        {
          "internalType": "string",
          "name": "",
          "type": "string"
        }
      ],
      "stateMutability": "view",
      "type": "function"
    },
    {
      "inputs": [],
      "name": "totalSupply",
      "outputs": [
        {
          "internalType": "uint256",
          "name": "",
          "type": "uint256"
        }
      ],
      "stateMutability": "view",
      "type": "function"
    },
    {
      "inputs": [
        {
          "internalType": "address",
          "name": "from",
          "type": "address"
        },
        {
          "internalType": "address",
          "name": "to",
          "type": "address"
        },
        {
          "internalType": "uint256",
          "name": "tokenId",
          "type": "uint256"
        }
      ],
      "name": "transferFrom",
      "outputs": [],
      "stateMutability": "nonpayable",
      "type": "function"
    },
    {
      "inputs": [
        {
          "internalType": "address",
          "name": "newOwner",
          "type": "address"
        }
      ],
      "name": "transferOwnership",
      "outputs": [],
      "stateMutability": "nonpayable",
      "type": "function"
    }
  ],
  "bytecode": "0x608060405234801561001057600080fd5b50336040518060400160405280600781526020017f426f6f6b4e4654000000000000000000000000000000000000000000000000008152506040518060400160405280600481526020017f424f4f4b00000000000000000000000000000000000000000000000000000000815250816000908161008d919061043d565b50806001908161009d919061043d565b505050600073ffffffffffffffffffffffffffffffffffffffff168173ffffffffffffffffffffffffffffffffffffffff16036101125760006040517f1e4fbdf70000000000000000000000000000000000000000000000000000000081526004016101099190610550565b60405180910390fd5b6101218161012760201b60201c565b5061056b565b6000600760009054906101000a900473ffffffffffffffffffffffffffffffffffffffff16905081600760006101000a81548173ffffffffffffffffffffffffffffffffffffffff021916908373ffffffffffffffffffffffffffffffffffffffff1602179055508173ffffffffffffffffffffffffffffffffffffffff168173ffffffffffffffffffffffffffffffffffffffff167f8be0079c531659141344cd1fd0a4f28419497f9722a3daafe3b4186f6b6457e060405160405180910390a35050565b600081519050919050565b7f4e487b7100000000000000000000000000000000000000000000000000000000600052604160045260246000fd5b7f4e487b7100000000000000000000000000000000000000000000000000000000600052602260045260246000fd5b6000600282049050600182168061026e57607f821691505b60208210810361028157610280610227565b5b50919050565b60008190508160005260206000209050919050565b60006020601f8301049050919050565b600082821b905092915050565b6000600883026102e97fffffffffffffffffffffffffffffffffffffffffffffffffffffffffffffffff826102ac565b6102f386836102ac565b95508019841693508086168417925050509392505050565b6000819050919050565b6000819050919050565b600061033a6103356103308461030b565b610315565b61030b565b9050919050565b6000819050919050565b6103548361031f565b61036861036082610341565b8484546102b9565b825550505050565b600090565b61037d610370565b61038881848461034b565b505050565b5b818110156103ac576103a1600082610375565b60018101905061038e565b5050565b601f8211156103f1576103c281610287565b6103cb8461029c565b810160208510156103da578190505b6103ee6103e68561029c565b83018261038d565b50505b505050565b600082821c905092915050565b6000610414600019846008026103f6565b1980831691505092915050565b600061042d8383610403565b9150826002028217905092915050565b610446826101ed565b67ffffffffffffffff81111561045f5761045e6101f8565b5b6104698254610256565b6104748282856103b0565b600060209050601f8311600181146104a75760008415610495578287015190505b61049f8582610421565b865550610507565b601f1984166104b586610287565b60005b828110156104dd578489015182556001820191506020850194506020810190506104b8565b868310156104fa57848901516104f6601f891682610403565b8355505b6001600288020188555050505b505050505050565b600073ffffffffffffffffffffffffffffffffffffffff82169050919050565b600061053a8261050f565b9050919050565b61054a8161052f565b82525050565b60006020820190506105656000830184610541565b92915050565b612e898061057a6000396000f3fe608060405234801561001057600080fd5b506004361061012c5760003560e01c8063715018a6116100ad578063c87b56dd11610071578063c87b56dd14610331578063e0ff5b8b14610361578063e985e9c514610391578063ebdfae09146103c1578063f2fde38b146103f15761012c565b8063715018a6146102b35780638da5cb5b146102bd57806395d89b41146102db578063a22cb465146102f9578063b88d4fde146103155761012c565b806318160ddd116100f457806318160ddd146101fd57806323b872dd1461021b57806342842e0e146102375780636352211e1461025357806370a08231146102835761012c565b806301ffc9a71461013157806306fdde0314610161578063081812fc1461017f578063095ea7b3146101af57806310668767146101cb575b600080fd5b61014b6004803603810190610146919061208b565b61040d565b60405161015891906120d3565b60405180910390f35b61016961046e565b604051610176919061217e565b60405180910390f35b610199600480360381019061019491906121d6565b610500565b6040516101a69190612244565b60405180910390f35b6101c960048036038101906101c4919061228b565b61051c565b005b6101e560048036038101906101e091906121d6565b610532565b6040516101f4939291906122cb565b60405180910390f35b6102056106f4565b6040516102129190612326565b60405180910390f35b61023560048036038101906102309190612341565b6106fe565b005b610251600480360381019061024c9190612341565b610800565b005b61026d600480360381019061026891906121d6565b610820565b60405161027a9190612244565b60405180910390f35b61029d60048036038101906102989190612394565b610832565b6040516102aa9190612326565b60405180910390f35b6102bb6108ec565b005b6102c5610900565b6040516102d29190612244565b60405180910390f35b6102e361092a565b6040516102f0919061217e565b60405180910390f35b610313600480360381019061030e91906123ed565b6109bc565b005b61032f600480360381019061032a9190612562565b6109d2565b005b61034b600480360381019061034691906121d6565b6109f7565b604051610358919061217e565b60405180910390f35b61037b600480360381019061037691906121d6565b610b0a565b604051610388919061268d565b60405180910390f35b6103ab60048036038101906103a691906126af565b610d64565b6040516103b891906120d3565b60405180910390f35b6103db60048036038101906103d69190612790565b610df8565b6040516103e89190612326565b60405180910390f35b61040b60048036038101906104069190612394565b610f07565b005b6000634906490660e01b7bffffffffffffffffffffffffffffffffffffffffffffffffffffffff1916827bffffffffffffffffffffffffffffffffffffffffffffffffffffffff19161480610467575061046682610f8d565b5b9050919050565b60606000805461047d906128aa565b80601f01602080910402602001604051908101604052809291908181526020018280546104a9906128aa565b80156104f65780601f106104cb576101008083540402835291602001916104f6565b820191906000526020600020905b8154815290600101906020018083116104d957829003601f168201915b5050505050905090565b600061050b8261106f565b50610515826110f7565b9050919050565b61052e8282610529611134565b61113c565b5050565b6009602052806000526040600020600091509050806000018054610555906128aa565b80601f0160208091040260200160405190810160405280929190818152602001828054610581906128aa565b80156105ce5780601f106105a3576101008083540402835291602001916105ce565b820191906000526020600020905b8154815290600101906020018083116105b157829003601f168201915b5050505050908060010180546105e3906128aa565b80601f016020809104026020016040519081016040528092919081815260200182805461060f906128aa565b801561065c5780601f106106315761010080835404028352916020019161065c565b820191906000526020600020905b81548152906001019060200180831161063f57829003601f168201915b505050505090806002018054610671906128aa565b80601f016020809104026020016040519081016040528092919081815260200182805461069d906128aa565b80156106ea5780601f106106bf576101008083540402835291602001916106ea565b820191906000526020600020905b8154815290600101906020018083116106cd57829003601f168201915b5050505050905083565b6000600854905090565b600073ffffffffffffffffffffffffffffffffffffffff168273ffffffffffffffffffffffffffffffffffffffff16036107705760006040517f64a0ae920000000000000000000000000000000000000000000000000000000081526004016107679190612244565b60405180910390fd5b6000610784838361077f611134565b61114e565b90508373ffffffffffffffffffffffffffffffffffffffff168173ffffffffffffffffffffffffffffffffffffffff16146107fa578382826040517f64283d7b0000000000000000000000000000000000000000000000000000000081526004016107f1939291906128db565b60405180910390fd5b50505050565b61081b838383604051806020016040528060008152506109d2565b505050565b600061082b8261106f565b9050919050565b60008073ffffffffffffffffffffffffffffffffffffffff168273ffffffffffffffffffffffffffffffffffffffff16036108a55760006040517f89c62b6400000000000000000000000000000000000000000000000000000000815260040161089c9190612244565b60405180910390fd5b600360008373ffffffffffffffffffffffffffffffffffffffff1673ffffffffffffffffffffffffffffffffffffffff168152602001908152602001600020549050919050565b6108f4611368565b6108fe60006113ef565b565b6000600760009054906101000a900473ffffffffffffffffffffffffffffffffffffffff16905090565b606060018054610939906128aa565b80601f0160208091040260200160405190810160405280929190818152602001828054610965906128aa565b80156109b25780601f10610987576101008083540402835291602001916109b2565b820191906000526020600020905b81548152906001019060200180831161099557829003601f168201915b5050505050905090565b6109ce6109c7611134565b83836114b5565b5050565b6109dd8484846106fe565b6109f16109e8611134565b85858585611624565b50505050565b6060610a028261106f565b506000600660008481526020019081526020016000208054610a23906128aa565b80601f0160208091040260200160405190810160405280929190818152602001828054610a4f906128aa565b8015610a9c5780601f10610a7157610100808354040283529160200191610a9c565b820191906000526020600020905b815481529060010190602001808311610a7f57829003601f168201915b505050505090506000610aad6117d5565b90506000815103610ac2578192505050610b05565b600082511115610af7578082604051602001610adf92919061294e565b60405160208183030381529060405292505050610b05565b610b00846117ec565b925050505b919050565b610b12611ffe565b600073ffffffffffffffffffffffffffffffffffffffff16610b3383610820565b73ffffffffffffffffffffffffffffffffffffffff1603610b89576040517f08c379a0000000000000000000000000000000000000000000000000000000008152600401610b80906129be565b60405180910390fd5b60096000838152602001908152602001600020604051806060016040529081600082018054610bb7906128aa565b80601f0160208091040260200160405190810160405280929190818152602001828054610be3906128aa565b8015610c305780601f10610c0557610100808354040283529160200191610c30565b820191906000526020600020905b815481529060010190602001808311610c1357829003601f168201915b50505050508152602001600182018054610c49906128aa565b80601f0160208091040260200160405190810160405280929190818152602001828054610c75906128aa565b8015610cc25780601f10610c9757610100808354040283529160200191610cc2565b820191906000526020600020905b815481529060010190602001808311610ca557829003601f168201915b50505050508152602001600282018054610cdb906128aa565b80601f0160208091040260200160405190810160405280929190818152602001828054610d07906128aa565b8015610d545780601f10610d2957610100808354040283529160200191610d54565b820191906000526020600020905b815481529060010190602001808311610d3757829003601f168201915b5050505050815250509050919050565b6000600560008473ffffffffffffffffffffffffffffffffffffffff1673ffffffffffffffffffffffffffffffffffffffff16815260200190815260200160002060008373ffffffffffffffffffffffffffffffffffffffff1673ffffffffffffffffffffffffffffffffffffffff16815260200190815260200160002060009054906101000a900460ff16905092915050565b6000610e02611368565b6000600854905060086000815480929190610e1c90612a0d565b9190505550610e2b8782611855565b610e358184611873565b604051806060016040528087815260200186815260200185815250600960008381526020019081526020016000206000820151816000019081610e789190612c01565b506020820151816001019081610e8e9190612c01565b506040820151816002019081610ea49190612c01565b509050508673ffffffffffffffffffffffffffffffffffffffff167fffe79feca4e0448d3a8ca14c22c5e7fd8cccc89257e85d07238fe5f9fe55b785828888604051610ef293929190612cd3565b60405180910390a28091505095945050505050565b610f0f611368565b600073ffffffffffffffffffffffffffffffffffffffff168173ffffffffffffffffffffffffffffffffffffffff1603610f815760006040517f1e4fbdf7000000000000000000000000000000000000000000000000000000008152600401610f789190612244565b60405180910390fd5b610f8a816113ef565b50565b60007f80ac58cd000000000000000000000000000000000000000000000000000000007bffffffffffffffffffffffffffffffffffffffffffffffffffffffff1916827bffffffffffffffffffffffffffffffffffffffffffffffffffffffff1916148061105857507f5b5e139f000000000000000000000000000000000000000000000000000000007bffffffffffffffffffffffffffffffffffffffffffffffffffffffff1916827bffffffffffffffffffffffffffffffffffffffffffffffffffffffff1916145b806110685750611067826118cf565b5b9050919050565b60008061107b83611939565b9050600073ffffffffffffffffffffffffffffffffffffffff168173ffffffffffffffffffffffffffffffffffffffff16036110ee57826040517f7e2732890000000000000000000000000000000000000000000000000000000081526004016110e59190612326565b60405180910390fd5b80915050919050565b60006004600083815260200190815260200160002060009054906101000a900473ffffffffffffffffffffffffffffffffffffffff169050919050565b600033905090565b6111498383836001611976565b505050565b60008061115a84611939565b9050600073ffffffffffffffffffffffffffffffffffffffff168373ffffffffffffffffffffffffffffffffffffffff161461119c5761119b818486611b3b565b5b600073ffffffffffffffffffffffffffffffffffffffff168173ffffffffffffffffffffffffffffffffffffffff161461122d576111de600085600080611976565b6001600360008373ffffffffffffffffffffffffffffffffffffffff1673ffffffffffffffffffffffffffffffffffffffff168152602001908152602001600020600082825403925050819055505b600073ffffffffffffffffffffffffffffffffffffffff168573ffffffffffffffffffffffffffffffffffffffff16146112b0576001600360008773ffffffffffffffffffffffffffffffffffffffff1673ffffffffffffffffffffffffffffffffffffffff168152602001908152602001600020600082825401925050819055505b846002600086815260200190815260200160002060006101000a81548173ffffffffffffffffffffffffffffffffffffffff021916908373ffffffffffffffffffffffffffffffffffffffff160217905550838573ffffffffffffffffffffffffffffffffffffffff168273ffffffffffffffffffffffffffffffffffffffff167fddf252ad1be2c89b69c2b068fc378daa952ba7f163c4a11628f55a4df523b3ef60405160405180910390a4809150509392505050565b611370611134565b73ffffffffffffffffffffffffffffffffffffffff1661138e610900565b73ffffffffffffffffffffffffffffffffffffffff16146113ed576113b1611134565b6040517f118cdaa70000000000000000000000000000000000000000000000000000000081526004016113e49190612244565b60405180910390fd5b565b6000600760009054906101000a900473ffffffffffffffffffffffffffffffffffffffff16905081600760006101000a81548173ffffffffffffffffffffffffffffffffffffffff021916908373ffffffffffffffffffffffffffffffffffffffff1602179055508173ffffffffffffffffffffffffffffffffffffffff168173ffffffffffffffffffffffffffffffffffffffff167f8be0079c531659141344cd1fd0a4f28419497f9722a3daafe3b4186f6b6457e060405160405180910390a35050565b600073ffffffffffffffffffffffffffffffffffffffff168273ffffffffffffffffffffffffffffffffffffffff160361152657816040517f5b08ba1800000000000000000000000000000000000000000000000000000000815260040161151d9190612244565b60405180910390fd5b80600560008573ffffffffffffffffffffffffffffffffffffffff1673ffffffffffffffffffffffffffffffffffffffff16815260200190815260200160002060008473ffffffffffffffffffffffffffffffffffffffff1673ffffffffffffffffffffffffffffffffffffffff16815260200190815260200160002060006101000a81548160ff0219169083151502179055508173ffffffffffffffffffffffffffffffffffffffff168373ffffffffffffffffffffffffffffffffffffffff167f17307eab39ab6107e8899845ad3d59bd9653f200f220920489ca2b5937696c318360405161161791906120d3565b60405180910390a3505050565b60008373ffffffffffffffffffffffffffffffffffffffff163b11156117ce578273ffffffffffffffffffffffffffffffffffffffff1663150b7a02868685856040518563ffffffff1660e01b81526004016116839493929190612d6d565b6020604051808303816000875af19250505080156116bf57506040513d601f19601f820116820180604052508101906116bc9190612dce565b60015b611743573d80600081146116ef576040519150601f19603f3d011682016040523d82523d6000602084013e6116f4565b606091505b50600081510361173b57836040517f64a0ae920000000000000000000000000000000000000000000000000000000081526004016117329190612244565b60405180910390fd5b805181602001fd5b63150b7a0260e01b7bffffffffffffffffffffffffffffffffffffffffffffffffffffffff1916817bffffffffffffffffffffffffffffffffffffffffffffffffffffffff1916146117cc57836040517f64a0ae920000000000000000000000000000000000000000000000000000000081526004016117c39190612244565b60405180910390fd5b505b5050505050565b606060405180602001604052806000815250905090565b60606117f78261106f565b5060006118026117d5565b90506000815111611822576040518060200160405280600081525061184d565b8061182c84611bff565b60405160200161183d92919061294e565b6040516020818303038152906040525b915050919050565b61186f828260405180602001604052806000815250611ccd565b5050565b806006600084815260200190815260200160002090816118939190612c01565b507ff8e1a15aba9398e019f0b49df1a4fde98ee17ae345cb5f6b5e2c27f5033e8ce7826040516118c39190612326565b60405180910390a15050565b60007f01ffc9a7000000000000000000000000000000000000000000000000000000007bffffffffffffffffffffffffffffffffffffffffffffffffffffffff1916827bffffffffffffffffffffffffffffffffffffffffffffffffffffffff1916149050919050565b60006002600083815260200190815260200160002060009054906101000a900473ffffffffffffffffffffffffffffffffffffffff169050919050565b80806119af5750600073ffffffffffffffffffffffffffffffffffffffff168273ffffffffffffffffffffffffffffffffffffffff1614155b15611ae35760006119bf8461106f565b9050600073ffffffffffffffffffffffffffffffffffffffff168373ffffffffffffffffffffffffffffffffffffffff1614158015611a2a57508273ffffffffffffffffffffffffffffffffffffffff168173ffffffffffffffffffffffffffffffffffffffff1614155b8015611a3d5750611a3b8184610d64565b155b15611a7f57826040517fa9fbf51f000000000000000000000000000000000000000000000000000000008152600401611a769190612244565b60405180910390fd5b8115611ae157838573ffffffffffffffffffffffffffffffffffffffff168273ffffffffffffffffffffffffffffffffffffffff167f8c5be1e5ebec7d5bd14f71427d1e84f3dd0314c0f7b2291e5b200ac8c7c3b92560405160405180910390a45b505b836004600085815260200190815260200160002060006101000a81548173ffffffffffffffffffffffffffffffffffffffff021916908373ffffffffffffffffffffffffffffffffffffffff16021790555050505050565b611b46838383611cf1565b611bfa57600073ffffffffffffffffffffffffffffffffffffffff168373ffffffffffffffffffffffffffffffffffffffff1603611bbb57806040517f7e273289000000000000000000000000000000000000000000000000000000008152600401611bb29190612326565b60405180910390fd5b81816040517f177e802f000000000000000000000000000000000000000000000000000000008152600401611bf1929190612dfb565b60405180910390fd5b505050565b606060006001611c0e84611db2565b01905060008167ffffffffffffffff811115611c2d57611c2c612437565b5b6040519080825280601f01601f191660200182016040528015611c5f5781602001600182028036833780820191505090505b509050600082602001820190505b600115611cc2578080600190039150507f3031323334353637383961626364656600000000000000000000000000000000600a86061a8153600a8581611cb657611cb5612e24565b5b04945060008503611c6d575b819350505050919050565b611cd78383611f05565b611cec611ce2611134565b6000858585611624565b505050565b60008073ffffffffffffffffffffffffffffffffffffffff168373ffffffffffffffffffffffffffffffffffffffff1614158015611da957508273ffffffffffffffffffffffffffffffffffffffff168473ffffffffffffffffffffffffffffffffffffffff161480611d6a5750611d698484610d64565b5b80611da857508273ffffffffffffffffffffffffffffffffffffffff16611d90836110f7565b73ffffffffffffffffffffffffffffffffffffffff16145b5b90509392505050565b600080600090507a184f03e93ff9f4daa797ed6e38ed64bf6a1f0100000000000000008310611e10577a184f03e93ff9f4daa797ed6e38ed64bf6a1f0100000000000000008381611e0657611e05612e24565b5b0492506040810190505b6d04ee2d6d415b85acef81000000008310611e4d576d04ee2d6d415b85acef81000000008381611e4357611e42612e24565b5b0492506020810190505b662386f26fc100008310611e7c57662386f26fc100008381611e7257611e71612e24565b5b0492506010810190505b6305f5e1008310611ea5576305f5e1008381611e9b57611e9a612e24565b5b0492506008810190505b6127108310611eca576127108381611ec057611ebf612e24565b5b0492506004810190505b60648310611eed5760648381611ee357611ee2612e24565b5b0492506002810190505b600a8310611efc576001810190505b80915050919050565b600073ffffffffffffffffffffffffffffffffffffffff168273ffffffffffffffffffffffffffffffffffffffff1603611f775760006040517f64a0ae92000000000000000000000000000000000000000000000000000000008152600401611f6e9190612244565b60405180910390fd5b6000611f858383600061114e565b9050600073ffffffffffffffffffffffffffffffffffffffff168173ffffffffffffffffffffffffffffffffffffffff1614611ff95760006040517f73c6ac6e000000000000000000000000000000000000000000000000000000008152600401611ff09190612244565b60405180910390fd5b505050565b60405180606001604052806060815260200160608152602001606081525090565b6000604051905090565b600080fd5b600080fd5b60007fffffffff0000000000000000000000000000000000000000000000000000000082169050919050565b61206881612033565b811461207357600080fd5b50565b6000813590506120858161205f565b92915050565b6000602082840312156120a1576120a0612029565b5b60006120af84828501612076565b91505092915050565b60008115159050919050565b6120cd816120b8565b82525050565b60006020820190506120e860008301846120c4565b92915050565b600081519050919050565b600082825260208201905092915050565b60005b8381101561212857808201518184015260208101905061210d565b60008484015250505050565b6000601f19601f8301169050919050565b6000612150826120ee565b61215a81856120f9565b935061216a81856020860161210a565b61217381612134565b840191505092915050565b600060208201905081810360008301526121988184612145565b905092915050565b6000819050919050565b6121b3816121a0565b81146121be57600080fd5b50565b6000813590506121d0816121aa565b92915050565b6000602082840312156121ec576121eb612029565b5b60006121fa848285016121c1565b91505092915050565b600073ffffffffffffffffffffffffffffffffffffffff82169050919050565b600061222e82612203565b9050919050565b61223e81612223565b82525050565b60006020820190506122596000830184612235565b92915050565b61226881612223565b811461227357600080fd5b50565b6000813590506122858161225f565b92915050565b600080604083850312156122a2576122a1612029565b5b60006122b085828601612276565b92505060206122c1858286016121c1565b9150509250929050565b600060608201905081810360008301526122e58186612145565b905081810360208301526122f98185612145565b9050818103604083015261230d8184612145565b9050949350505050565b612320816121a0565b82525050565b600060208201905061233b6000830184612317565b92915050565b60008060006060848603121561235a57612359612029565b5b600061236886828701612276565b935050602061237986828701612276565b925050604061238a868287016121c1565b9150509250925092565b6000602082840312156123aa576123a9612029565b5b60006123b884828501612276565b91505092915050565b6123ca816120b8565b81146123d557600080fd5b50565b6000813590506123e7816123c1565b92915050565b6000806040838503121561240457612403612029565b5b600061241285828601612276565b9250506020612423858286016123d8565b9150509250929050565b600080fd5b600080fd5b7f4e487b7100000000000000000000000000000000000000000000000000000000600052604160045260246000fd5b61246f82612134565b810181811067ffffffffffffffff8211171561248e5761248d612437565b5b80604052505050565b60006124a161201f565b90506124ad8282612466565b919050565b600067ffffffffffffffff8211156124cd576124cc612437565b5b6124d682612134565b9050602081019050919050565b82818337600083830152505050565b6000612505612500846124b2565b612497565b90508281526020810184848401111561252157612520612432565b5b61252c8482856124e3565b509392505050565b600082601f8301126125495761254861242d565b5b81356125598482602086016124f2565b91505092915050565b6000806000806080858703121561257c5761257b612029565b5b600061258a87828801612276565b945050602061259b87828801612276565b93505060406125ac878288016121c1565b925050606085013567ffffffffffffffff8111156125cd576125cc61202e565b5b6125d987828801612534565b91505092959194509250565b600082825260208201905092915050565b6000612601826120ee565b61260b81856125e5565b935061261b81856020860161210a565b61262481612134565b840191505092915050565b6000606083016000830151848203600086015261264c82826125f6565b9150506020830151848203602086015261266682826125f6565b9150506040830151848203604086015261268082826125f6565b9150508091505092915050565b600060208201905081810360008301526126a7818461262f565b905092915050565b600080604083850312156126c6576126c5612029565b5b60006126d485828601612276565b92505060206126e585828601612276565b9150509250929050565b600067ffffffffffffffff82111561270a57612709612437565b5b61271382612134565b9050602081019050919050565b600061273361272e846126ef565b612497565b90508281526020810184848401111561274f5761274e612432565b5b61275a8482856124e3565b509392505050565b600082601f8301126127775761277661242d565b5b8135612787848260208601612720565b91505092915050565b600080600080600060a086880312156127ac576127ab612029565b5b60006127ba88828901612276565b955050602086013567ffffffffffffffff8111156127db576127da61202e565b5b6127e788828901612762565b945050604086013567ffffffffffffffff8111156128085761280761202e565b5b61281488828901612762565b935050606086013567ffffffffffffffff8111156128355761283461202e565b5b61284188828901612762565b925050608086013567ffffffffffffffff8111156128625761286161202e565b5b61286e88828901612762565b9150509295509295909350565b7f4e487b7100000000000000000000000000000000000000000000000000000000600052602260045260246000fd5b600060028204905060018216806128c257607f821691505b6020821081036128d5576128d461287b565b5b50919050565b60006060820190506128f06000830186612235565b6128fd6020830185612317565b61290a6040830184612235565b949350505050565b600081905092915050565b6000612928826120ee565b6129328185612912565b935061294281856020860161210a565b80840191505092915050565b600061295a828561291d565b9150612966828461291d565b91508190509392505050565b7f426f6f6b20646f6573206e6f742065786973742e000000000000000000000000600082015250565b60006129a86014836120f9565b91506129b382612972565b602082019050919050565b600060208201905081810360008301526129d78161299b565b9050919050565b7f4e487b7100000000000000000000000000000000000000000000000000000000600052601160045260246000fd5b6000612a18826121a0565b91507fffffffffffffffffffffffffffffffffffffffffffffffffffffffffffffffff8203612a4a57612a496129de565b5b600182019050919050565b60008190508160005260206000209050919050565b60006020601f8301049050919050565b600082821b905092915050565b600060088302612ab77fffffffffffffffffffffffffffffffffffffffffffffffffffffffffffffffff82612a7a565b612ac18683612a7a565b95508019841693508086168417925050509392505050565b6000819050919050565b6000612afe612af9612af4846121a0565b612ad9565b6121a0565b9050919050565b6000819050919050565b612b1883612ae3565b612b2c612b2482612b05565b848454612a87565b825550505050565b600090565b612b41612b34565b612b4c818484612b0f565b505050565b5b81811015612b7057612b65600082612b39565b600181019050612b52565b5050565b601f821115612bb557612b8681612a55565b612b8f84612a6a565b81016020851015612b9e578190505b612bb2612baa85612a6a565b830182612b51565b50505b505050565b600082821c905092915050565b6000612bd860001984600802612bba565b1980831691505092915050565b6000612bf18383612bc7565b9150826002028217905092915050565b612c0a826120ee565b67ffffffffffffffff811115612c2357612c22612437565b5b612c2d82546128aa565b612c38828285612b74565b600060209050601f831160018114612c6b5760008415612c59578287015190505b612c638582612be5565b865550612ccb565b601f198416612c7986612a55565b60005b82811015612ca157848901518255600182019150602085019450602081019050612c7c565b86831015612cbe5784890151612cba601f891682612bc7565b8355505b6001600288020188555050505b505050505050565b6000606082019050612ce86000830186612317565b8181036020830152612cfa8185612145565b90508181036040830152612d0e8184612145565b9050949350505050565b600081519050919050565b600082825260208201905092915050565b6000612d3f82612d18565b612d498185612d23565b9350612d5981856020860161210a565b612d6281612134565b840191505092915050565b6000608082019050612d826000830187612235565b612d8f6020830186612235565b612d9c6040830185612317565b8181036060830152612dae8184612d34565b905095945050505050565b600081519050612dc88161205f565b92915050565b600060208284031215612de457612de3612029565b5b6000612df284828501612db9565b91505092915050565b6000604082019050612e106000830185612235565b612e1d6020830184612317565b9392505050565b7f4e487b7100000000000000000000000000000000000000000000000000000000600052601260045260246000fdfea264697066735822122005759f91910d2690883dc29ed492178b6abfb483c30b27f0ed770a153b585fd464736f6c634300081c0033",
  "linkReferences": {},
  "deployedLinkReferences": {}
}